{
  "_format": "hh3-artifact-1",
  "contractName": "PaymentToken",
  "sourceName": "contracts/PaymentToken.sol",
  "abi": [
    {
      "inputs": [
        {
          "internalType": "address",
          "name": "initialOwner",
          "type": "address"
        }
      ],
      "stateMutability": "nonpayable",
      "type": "constructor"
    },
    {
      "inputs": [
        {
          "internalType": "address",
          "name": "spender",
          "type": "address"
        },
        {
          "internalType": "uint256",
          "name": "allowance",
          "type": "uint256"
        },
        {
          "internalType": "uint256",
          "name": "needed",
          "type": "uint256"
        }
      ],
      "name": "ERC20InsufficientAllowance",
      "type": "error"
    },
    {
      "inputs": [
        {
          "internalType": "address",
          "name": "sender",
          "type": "address"
        },
        {
          "internalType": "uint256",
          "name": "balance",
          "type": "uint256"
        },
        {
          "internalType": "uint256",
          "name": "needed",
          "type": "uint256"
        }
      ],
      "name": "ERC20InsufficientBalance",
      "type": "error"
    },
    {
      "inputs": [
        {
          "internalType": "address",
          "name": "approver",
          "type": "address"
        }
      ],
      "name": "ERC20InvalidApprover",
      "type": "error"
    },
    {
      "inputs": [
        {
          "internalType": "address",
          "name": "receiver",
          "type": "address"
        }
      ],
      "name": "ERC20InvalidReceiver",
      "type": "error"
    },
    {
      "inputs": [
        {
          "internalType": "address",
          "name": "sender",
          "type": "address"
        }
      ],
      "name": "ERC20InvalidSender",
      "type": "error"
    },
    {
      "inputs": [
        {
          "internalType": "address",
          "name": "spender",
          "type": "address"
        }
      ],
      "name": "ERC20InvalidSpender",
      "type": "error"
    },
    {
      "inputs": [
        {
          "internalType": "address",
          "name": "owner",
          "type": "address"
        }
      ],
      "name": "OwnableInvalidOwner",
      "type": "error"
    },
    {
      "inputs": [
        {
          "internalType": "address",
          "name": "account",
          "type": "address"
        }
      ],
      "name": "OwnableUnauthorizedAccount",
      "type": "error"
    },
    {
      "anonymous": false,
      "inputs": [
        {
          "indexed": true,
          "internalType": "address",
          "name": "owner",
          "type": "address"
        },
        {
          "indexed": true,
          "internalType": "address",
          "name": "spender",
          "type": "address"
        },
        {
          "indexed": false,
          "internalType": "uint256",
          "name": "value",
          "type": "uint256"
        }
      ],
      "name": "Approval",
      "type": "event"
    },
    {
      "anonymous": false,
      "inputs": [
        {
          "indexed": true,
          "internalType": "address",
          "name": "previousOwner",
          "type": "address"
        },
        {
          "indexed": true,
          "internalType": "address",
          "name": "newOwner",
          "type": "address"
        }
      ],
      "name": "OwnershipTransferred",
      "type": "event"
    },
    {
      "anonymous": false,
      "inputs": [
        {
          "indexed": true,
          "internalType": "address",
          "name": "from",
          "type": "address"
        },
        {
          "indexed": true,
          "internalType": "address",
          "name": "to",
          "type": "address"
        },
        {
          "indexed": false,
          "internalType": "uint256",
          "name": "value",
          "type": "uint256"
        }
      ],
      "name": "Transfer",
      "type": "event"
    },
    {
      "inputs": [],
      "name": "INITIAL_SUPPLY",
      "outputs": [
        {
          "internalType": "uint256",
          "name": "",
          "type": "uint256"
        }
      ],
      "stateMutability": "view",
      "type": "function"
    },
    {
      "inputs": [],
      "name": "TOKENS_PER_ETH",
      "outputs": [
        {
          "internalType": "uint256",
          "name": "",
          "type": "uint256"
        }
      ],
      "stateMutability": "view",
      "type": "function"
    },
    {
      "inputs": [
        {
          "internalType": "address",
          "name": "owner",
          "type": "address"
        },
        {
          "internalType": "address",
          "name": "spender",
          "type": "address"
        }
      ],
      "name": "allowance",
      "outputs": [
        {
          "internalType": "uint256",
          "name": "",
          "type": "uint256"
        }
      ],
      "stateMutability": "view",
      "type": "function"
    },
    {
      "inputs": [
        {
          "internalType": "address",
          "name": "spender",
          "type": "address"
        },
        {
          "internalType": "uint256",
          "name": "value",
          "type": "uint256"
        }
      ],
      "name": "approve",
      "outputs": [
        {
          "internalType": "bool",
          "name": "",
          "type": "bool"
        }
      ],
      "stateMutability": "nonpayable",
      "type": "function"
    },
    {
      "inputs": [
        {
          "internalType": "address",
          "name": "account",
          "type": "address"
        }
      ],
      "name": "balanceOf",
      "outputs": [
        {
          "internalType": "uint256",
          "name": "",
          "type": "uint256"
        }
      ],
      "stateMutability": "view",
      "type": "function"
    },
    {
      "inputs": [],
      "name": "buyTokens",
      "outputs": [],
      "stateMutability": "payable",
      "type": "function"
    },
    {
      "inputs": [],
      "name": "decimals",
      "outputs": [
        {
          "internalType": "uint8",
          "name": "",
          "type": "uint8"
        }
      ],
      "stateMutability": "view",
      "type": "function"
    },
    {
      "inputs": [],
      "name": "name",
      "outputs": [
        {
          "internalType": "string",
          "name": "",
          "type": "string"
        }
      ],
      "stateMutability": "view",
      "type": "function"
    },
    {
      "inputs": [],
      "name": "owner",
      "outputs": [
        {
          "internalType": "address",
          "name": "",
          "type": "address"
        }
      ],
      "stateMutability": "view",
      "type": "function"
    },
    {
      "inputs": [],
      "name": "renounceOwnership",
      "outputs": [],
      "stateMutability": "nonpayable",
      "type": "function"
    },
    {
      "inputs": [],
      "name": "symbol",
      "outputs": [
        {
          "internalType": "string",
          "name": "",
          "type": "string"
        }
      ],
      "stateMutability": "view",
      "type": "function"
    },
    {
      "inputs": [],
      "name": "totalSupply",
      "outputs": [
        {
          "internalType": "uint256",
          "name": "",
          "type": "uint256"
        }
      ],
      "stateMutability": "view",
      "type": "function"
    },
    {
      "inputs": [
        {
          "internalType": "address",
          "name": "to",
          "type": "address"
        },
        {
          "internalType": "uint256",
          "name": "value",
          "type": "uint256"
        }
      ],
      "name": "transfer",
      "outputs": [
        {
          "internalType": "bool",
          "name": "",
          "type": "bool"
        }
      ],
      "stateMutability": "nonpayable",
      "type": "function"
    },
    {
      "inputs": [
        {
          "internalType": "address",
          "name": "from",
          "type": "address"
        },
        {
          "internalType": "address",
          "name": "to",
          "type": "address"
        },
        {
          "internalType": "uint256",
          "name": "value",
          "type": "uint256"
        }
      ],
      "name": "transferFrom",
      "outputs": [
        {
          "internalType": "bool",
          "name": "",
          "type": "bool"
        }
      ],
      "stateMutability": "nonpayable",
      "type": "function"
    },
    {
      "inputs": [
        {
          "internalType": "address",
          "name": "newOwner",
          "type": "address"
        }
      ],
      "name": "transferOwnership",
      "outputs": [],
      "stateMutability": "nonpayable",
      "type": "function"
    },
    {
      "inputs": [
        {
          "internalType": "address payable",
          "name": "to",
          "type": "address"
        },
        {
          "internalType": "uint256",
          "name": "amount",
          "type": "uint256"
        }
      ],
      "name": "withdrawEther",
      "outputs": [],
      "stateMutability": "nonpayable",
      "type": "function"
    }
  ],
  "bytecode": "0x608060405234801561000f575f5ffd5b50604051610ed0380380610ed083398101604081905261002e91610290565b806040518060400160405280600c81526020016b2830bcb6b2b73a2a37b5b2b760a11b8152506040518060400160405280600381526020016250415960e81b815250816003908161007f9190610355565b50600461008c8282610355565b5050506001600160a01b0381166100bd57604051631e4fbdf760e01b81525f60048201526024015b60405180910390fd5b6100c6816100e1565b506100db3069d3c21bcecceda1000000610132565b50610434565b600580546001600160a01b038381166001600160a01b0319831681179093556040519116919082907f8be0079c531659141344cd1fd0a4f28419497f9722a3daafe3b4186f6b6457e0905f90a35050565b6001600160a01b03821661015b5760405163ec442f0560e01b81525f60048201526024016100b4565b6101665f838361016a565b5050565b6001600160a01b038316610194578060025f828254610189919061040f565b909155506102049050565b6001600160a01b0383165f90815260208190526040902054818110156101e65760405163391434e360e21b81526001600160a01b038516600482015260248101829052604481018390526064016100b4565b6001600160a01b0384165f9081526020819052604090209082900390555b6001600160a01b0382166102205760028054829003905561023e565b6001600160a01b0382165f9081526020819052604090208054820190555b816001600160a01b0316836001600160a01b03167fddf252ad1be2c89b69c2b068fc378daa952ba7f163c4a11628f55a4df523b3ef8360405161028391815260200190565b60405180910390a3505050565b5f602082840312156102a0575f5ffd5b81516001600160a01b03811681146102b6575f5ffd5b9392505050565b634e487b7160e01b5f52604160045260245ffd5b600181811c908216806102e557607f821691505b60208210810361030357634e487b7160e01b5f52602260045260245ffd5b50919050565b601f82111561035057805f5260205f20601f840160051c8101602085101561032e5750805b601f840160051c820191505b8181101561034d575f815560010161033a565b50505b505050565b81516001600160401b0381111561036e5761036e6102bd565b6103828161037c84546102d1565b84610309565b6020601f8211600181146103b4575f831561039d5750848201515b5f19600385901b1c1916600184901b17845561034d565b5f84815260208120601f198516915b828110156103e357878501518255602094850194600190920191016103c3565b508482101561040057868401515f19600387901b60f8161c191681555b50505050600190811b01905550565b8082018082111561042e57634e487b7160e01b5f52601160045260245ffd5b92915050565b610a8f806104415f395ff3fe6080604052600436106100ef575f3560e01c8063715018a611610087578063bc6e660411610057578063bc6e660414610284578063d0febe4c14610299578063dd62ed3e146102a1578063f2fde38b146102e5575f5ffd5b8063715018a6146102165780638da5cb5b1461022a57806395d89b4114610251578063a9059cbb14610265575f5ffd5b80632ff2e9dc116100c25780632ff2e9dc14610189578063313ce567146101a6578063522f6815146101c157806370a08231146101e2575f5ffd5b806306fdde03146100f3578063095ea7b31461011d57806318160ddd1461014c57806323b872dd1461016a575b5f5ffd5b3480156100fe575f5ffd5b50610107610304565b60405161011491906108d9565b60405180910390f35b348015610128575f5ffd5b5061013c610137366004610922565b610394565b6040519015158152602001610114565b348015610157575f5ffd5b506002545b604051908152602001610114565b348015610175575f5ffd5b5061013c61018436600461094c565b6103ad565b348015610194575f5ffd5b5061015c69d3c21bcecceda100000081565b3480156101b1575f5ffd5b5060405160128152602001610114565b3480156101cc575f5ffd5b506101e06101db366004610922565b6103d0565b005b3480156101ed575f5ffd5b5061015c6101fc36600461098a565b6001600160a01b03165f9081526020819052604090205490565b348015610221575f5ffd5b506101e0610456565b348015610235575f5ffd5b506005546040516001600160a01b039091168152602001610114565b34801561025c575f5ffd5b50610107610469565b348015610270575f5ffd5b5061013c61027f366004610922565b610478565b34801561028f575f5ffd5b5061015c6103e881565b6101e0610485565b3480156102ac575f5ffd5b5061015c6102bb3660046109ac565b6001600160a01b039182165f90815260016020908152604080832093909416825291909152205490565b3480156102f0575f5ffd5b506101e06102ff36600461098a565b610540565b606060038054610313906109e3565b80601f016020809104026020016040519081016040528092919081815260200182805461033f906109e3565b801561038a5780601f106103615761010080835404028352916020019161038a565b820191905f5260205f20905b81548152906001019060200180831161036d57829003601f168201915b5050505050905090565b5f336103a181858561057d565b60019150505b92915050565b5f336103ba85828561058a565b6103c5858585610606565b506001949350505050565b6103d8610663565b8047101561041e5760405162461bcd60e51b815260206004820152600e60248201526d09cdee840cadcdeeaced0408aa8960931b60448201526064015b60405180910390fd5b6040516001600160a01b0383169082156108fc029083905f818181858888f19350505050158015610451573d5f5f3e3d5ffd5b505050565b61045e610663565b6104675f610690565b565b606060048054610313906109e3565b5f336103a1818585610606565b5f34116104c25760405162461bcd60e51b815260206004820152600b60248201526a139bc8115512081cd95b9d60aa1b6044820152606401610415565b5f6104cf6103e834610a2f565b305f90815260208190526040902054909150818110156105315760405162461bcd60e51b815260206004820152601d60248201527f4e6f7420656e6f75676820746f6b656e7320696e20636f6e74726163740000006044820152606401610415565b61053c303384610606565b5050565b610548610663565b6001600160a01b03811661057157604051631e4fbdf760e01b81525f6004820152602401610415565b61057a81610690565b50565b61045183838360016106e1565b6001600160a01b038381165f908152600160209081526040808320938616835292905220545f1981101561060057818110156105f257604051637dc7a0d960e11b81526001600160a01b03841660048201526024810182905260448101839052606401610415565b61060084848484035f6106e1565b50505050565b6001600160a01b03831661062f57604051634b637e8f60e11b81525f6004820152602401610415565b6001600160a01b0382166106585760405163ec442f0560e01b81525f6004820152602401610415565b6104518383836107b3565b6005546001600160a01b031633146104675760405163118cdaa760e01b8152336004820152602401610415565b600580546001600160a01b038381166001600160a01b0319831681179093556040519116919082907f8be0079c531659141344cd1fd0a4f28419497f9722a3daafe3b4186f6b6457e0905f90a35050565b6001600160a01b03841661070a5760405163e602df0560e01b81525f6004820152602401610415565b6001600160a01b03831661073357604051634a1406b160e11b81525f6004820152602401610415565b6001600160a01b038085165f908152600160209081526040808320938716835292905220829055801561060057826001600160a01b0316846001600160a01b03167f8c5be1e5ebec7d5bd14f71427d1e84f3dd0314c0f7b2291e5b200ac8c7c3b925846040516107a591815260200190565b60405180910390a350505050565b6001600160a01b0383166107dd578060025f8282546107d29190610a46565b9091555061084d9050565b6001600160a01b0383165f908152602081905260409020548181101561082f5760405163391434e360e21b81526001600160a01b03851660048201526024810182905260448101839052606401610415565b6001600160a01b0384165f9081526020819052604090209082900390555b6001600160a01b03821661086957600280548290039055610887565b6001600160a01b0382165f9081526020819052604090208054820190555b816001600160a01b0316836001600160a01b03167fddf252ad1be2c89b69c2b068fc378daa952ba7f163c4a11628f55a4df523b3ef836040516108cc91815260200190565b60405180910390a3505050565b602081525f82518060208401528060208501604085015e5f604082850101526040601f19601f83011684010191505092915050565b6001600160a01b038116811461057a575f5ffd5b5f5f60408385031215610933575f5ffd5b823561093e8161090e565b946020939093013593505050565b5f5f5f6060848603121561095e575f5ffd5b83356109698161090e565b925060208401356109798161090e565b929592945050506040919091013590565b5f6020828403121561099a575f5ffd5b81356109a58161090e565b9392505050565b5f5f604083850312156109bd575f5ffd5b82356109c88161090e565b915060208301356109d88161090e565b809150509250929050565b600181811c908216806109f757607f821691505b602082108103610a1557634e487b7160e01b5f52602260045260245ffd5b50919050565b634e487b7160e01b5f52601160045260245ffd5b80820281158282048414176103a7576103a7610a1b565b808201808211156103a7576103a7610a1b56fea264697066735822122011861299e59a70e36e728f397cda187dd87bf484c4a764604fc45a383312c10f64736f6c634300081c0033",
  "linkReferences": {},
  "deployedLinkReferences": {},
  "immutableReferences": {},
  "inputSourceName": "project/contracts/PaymentToken.sol",
  "buildInfoId": "solc-0_8_28-ddfb16d275d6c79e588067dc4fcf1addb32fb8f9"
}