{
  "_format": "hh3-artifact-1",
  "contractName": "NFTMinter",
  "sourceName": "contracts/NFTMinter.sol",
  "abi": [
    {
      "inputs": [
        {
          "internalType": "address",
          "name": "initialOwner",
          "type": "address"
        },
        {
          "internalType": "address",
          "name": "paymentTokenAddress",
          "type": "address"
        }
      ],
      "stateMutability": "nonpayable",
      "type": "constructor"
    },
    {
      "inputs": [
        {
          "internalType": "address",
          "name": "sender",
          "type": "address"
        },
        {
          "internalType": "uint256",
          "name": "tokenId",
          "type": "uint256"
        },
        {
          "internalType": "address",
          "name": "owner",
          "type": "address"
        }
      ],
      "name": "ERC721IncorrectOwner",
      "type": "error"
    },
    {
      "inputs": [
        {
          "internalType": "address",
          "name": "operator",
          "type": "address"
        },
        {
          "internalType": "uint256",
          "name": "tokenId",
          "type": "uint256"
        }
      ],
      "name": "ERC721InsufficientApproval",
      "type": "error"
    },
    {
      "inputs": [
        {
          "internalType": "address",
          "name": "approver",
          "type": "address"
        }
      ],
      "name": "ERC721InvalidApprover",
      "type": "error"
    },
    {
      "inputs": [
        {
          "internalType": "address",
          "name": "operator",
          "type": "address"
        }
      ],
      "name": "ERC721InvalidOperator",
      "type": "error"
    },
    {
      "inputs": [
        {
          "internalType": "address",
          "name": "owner",
          "type": "address"
        }
      ],
      "name": "ERC721InvalidOwner",
      "type": "error"
    },
    {
      "inputs": [
        {
          "internalType": "address",
          "name": "receiver",
          "type": "address"
        }
      ],
      "name": "ERC721InvalidReceiver",
      "type": "error"
    },
    {
      "inputs": [
        {
          "internalType": "address",
          "name": "sender",
          "type": "address"
        }
      ],
      "name": "ERC721InvalidSender",
      "type": "error"
    },
    {
      "inputs": [
        {
          "internalType": "uint256",
          "name": "tokenId",
          "type": "uint256"
        }
      ],
      "name": "ERC721NonexistentToken",
      "type": "error"
    },
    {
      "inputs": [
        {
          "internalType": "address",
          "name": "owner",
          "type": "address"
        }
      ],
      "name": "OwnableInvalidOwner",
      "type": "error"
    },
    {
      "inputs": [
        {
          "internalType": "address",
          "name": "account",
          "type": "address"
        }
      ],
      "name": "OwnableUnauthorizedAccount",
      "type": "error"
    },
    {
      "anonymous": false,
      "inputs": [
        {
          "indexed": true,
          "internalType": "address",
          "name": "owner",
          "type": "address"
        },
        {
          "indexed": true,
          "internalType": "address",
          "name": "approved",
          "type": "address"
        },
        {
          "indexed": true,
          "internalType": "uint256",
          "name": "tokenId",
          "type": "uint256"
        }
      ],
      "name": "Approval",
      "type": "event"
    },
    {
      "anonymous": false,
      "inputs": [
        {
          "indexed": true,
          "internalType": "address",
          "name": "owner",
          "type": "address"
        },
        {
          "indexed": true,
          "internalType": "address",
          "name": "operator",
          "type": "address"
        },
        {
          "indexed": false,
          "internalType": "bool",
          "name": "approved",
          "type": "bool"
        }
      ],
      "name": "ApprovalForAll",
      "type": "event"
    },
    {
      "anonymous": false,
      "inputs": [
        {
          "indexed": false,
          "internalType": "uint256",
          "name": "_fromTokenId",
          "type": "uint256"
        },
        {
          "indexed": false,
          "internalType": "uint256",
          "name": "_toTokenId",
          "type": "uint256"
        }
      ],
      "name": "BatchMetadataUpdate",
      "type": "event"
    },
    {
      "anonymous": false,
      "inputs": [
        {
          "indexed": false,
          "internalType": "uint256",
          "name": "_tokenId",
          "type": "uint256"
        }
      ],
      "name": "MetadataUpdate",
      "type": "event"
    },
    {
      "anonymous": false,
      "inputs": [
        {
          "indexed": true,
          "internalType": "address",
          "name": "previousOwner",
          "type": "address"
        },
        {
          "indexed": true,
          "internalType": "address",
          "name": "newOwner",
          "type": "address"
        }
      ],
      "name": "OwnershipTransferred",
      "type": "event"
    },
    {
      "anonymous": false,
      "inputs": [
        {
          "indexed": true,
          "internalType": "address",
          "name": "from",
          "type": "address"
        },
        {
          "indexed": true,
          "internalType": "address",
          "name": "to",
          "type": "address"
        },
        {
          "indexed": true,
          "internalType": "uint256",
          "name": "tokenId",
          "type": "uint256"
        }
      ],
      "name": "Transfer",
      "type": "event"
    },
    {
      "inputs": [],
      "name": "NFT_PRICE",
      "outputs": [
        {
          "internalType": "uint256",
          "name": "",
          "type": "uint256"
        }
      ],
      "stateMutability": "view",
      "type": "function"
    },
    {
      "inputs": [
        {
          "internalType": "address",
          "name": "to",
          "type": "address"
        },
        {
          "internalType": "uint256",
          "name": "tokenId",
          "type": "uint256"
        }
      ],
      "name": "approve",
      "outputs": [],
      "stateMutability": "nonpayable",
      "type": "function"
    },
    {
      "inputs": [
        {
          "internalType": "address",
          "name": "owner",
          "type": "address"
        }
      ],
      "name": "balanceOf",
      "outputs": [
        {
          "internalType": "uint256",
          "name": "",
          "type": "uint256"
        }
      ],
      "stateMutability": "view",
      "type": "function"
    },
    {
      "inputs": [
        {
          "internalType": "uint256",
          "name": "tokenId",
          "type": "uint256"
        }
      ],
      "name": "getApproved",
      "outputs": [
        {
          "internalType": "address",
          "name": "",
          "type": "address"
        }
      ],
      "stateMutability": "view",
      "type": "function"
    },
    {
      "inputs": [
        {
          "internalType": "address",
          "name": "owner",
          "type": "address"
        },
        {
          "internalType": "address",
          "name": "operator",
          "type": "address"
        }
      ],
      "name": "isApprovedForAll",
      "outputs": [
        {
          "internalType": "bool",
          "name": "",
          "type": "bool"
        }
      ],
      "stateMutability": "view",
      "type": "function"
    },
    {
      "inputs": [
        {
          "internalType": "address",
          "name": "to",
          "type": "address"
        },
        {
          "internalType": "string",
          "name": "tokenURI",
          "type": "string"
        }
      ],
      "name": "mintNFT",
      "outputs": [],
      "stateMutability": "nonpayable",
      "type": "function"
    },
    {
      "inputs": [],
      "name": "name",
      "outputs": [
        {
          "internalType": "string",
          "name": "",
          "type": "string"
        }
      ],
      "stateMutability": "view",
      "type": "function"
    },
    {
      "inputs": [],
      "name": "owner",
      "outputs": [
        {
          "internalType": "address",
          "name": "",
          "type": "address"
        }
      ],
      "stateMutability": "view",
      "type": "function"
    },
    {
      "inputs": [
        {
          "internalType": "uint256",
          "name": "tokenId",
          "type": "uint256"
        }
      ],
      "name": "ownerOf",
      "outputs": [
        {
          "internalType": "address",
          "name": "",
          "type": "address"
        }
      ],
      "stateMutability": "view",
      "type": "function"
    },
    {
      "inputs": [],
      "name": "paymentToken",
      "outputs": [
        {
          "internalType": "contract IERC20",
          "name": "",
          "type": "address"
        }
      ],
      "stateMutability": "view",
      "type": "function"
    },
    {
      "inputs": [],
      "name": "renounceOwnership",
      "outputs": [],
      "stateMutability": "nonpayable",
      "type": "function"
    },
    {
      "inputs": [
        {
          "internalType": "address",
          "name": "from",
          "type": "address"
        },
        {
          "internalType": "address",
          "name": "to",
          "type": "address"
        },
        {
          "internalType": "uint256",
          "name": "tokenId",
          "type": "uint256"
        }
      ],
      "name": "safeTransferFrom",
      "outputs": [],
      "stateMutability": "nonpayable",
      "type": "function"
    },
    {
      "inputs": [
        {
          "internalType": "address",
          "name": "from",
          "type": "address"
        },
        {
          "internalType": "address",
          "name": "to",
          "type": "address"
        },
        {
          "internalType": "uint256",
          "name": "tokenId",
          "type": "uint256"
        },
        {
          "internalType": "bytes",
          "name": "data",
          "type": "bytes"
        }
      ],
      "name": "safeTransferFrom",
      "outputs": [],
      "stateMutability": "nonpayable",
      "type": "function"
    },
    {
      "inputs": [
        {
          "internalType": "address",
          "name": "operator",
          "type": "address"
        },
        {
          "internalType": "bool",
          "name": "approved",
          "type": "bool"
        }
      ],
      "name": "setApprovalForAll",
      "outputs": [],
      "stateMutability": "nonpayable",
      "type": "function"
    },
    {
      "inputs": [
        {
          "internalType": "bytes4",
          "name": "interfaceId",
          "type": "bytes4"
        }
      ],
      "name": "supportsInterface",
      "outputs": [
        {
          "internalType": "bool",
          "name": "",
          "type": "bool"
        }
      ],
      "stateMutability": "view",
      "type": "function"
    },
    {
      "inputs": [],
      "name": "symbol",
      "outputs": [
        {
          "internalType": "string",
          "name": "",
          "type": "string"
        }
      ],
      "stateMutability": "view",
      "type": "function"
    },
    {
      "inputs": [
        {
          "internalType": "uint256",
          "name": "tokenId",
          "type": "uint256"
        }
      ],
      "name": "tokenURI",
      "outputs": [
        {
          "internalType": "string",
          "name": "",
          "type": "string"
        }
      ],
      "stateMutability": "view",
      "type": "function"
    },
    {
      "inputs": [
        {
          "internalType": "address",
          "name": "from",
          "type": "address"
        },
        {
          "internalType": "address",
          "name": "to",
          "type": "address"
        },
        {
          "internalType": "uint256",
          "name": "tokenId",
          "type": "uint256"
        }
      ],
      "name": "transferFrom",
      "outputs": [],
      "stateMutability": "nonpayable",
      "type": "function"
    },
    {
      "inputs": [
        {
          "internalType": "address",
          "name": "newOwner",
          "type": "address"
        }
      ],
      "name": "transferOwnership",
      "outputs": [],
      "stateMutability": "nonpayable",
      "type": "function"
    },
    {
      "inputs": [
        {
          "internalType": "address",
          "name": "to",
          "type": "address"
        },
        {
          "internalType": "uint256",
          "name": "amount",
          "type": "uint256"
        }
      ],
      "name": "withdrawPaymentTokens",
      "outputs": [],
      "stateMutability": "nonpayable",
      "type": "function"
    }
  ],
  "bytecode": "0x60a060405234801561000f575f5ffd5b506040516119af3803806119af83398101604081905261002e91610194565b8160405180604001604052806005815260200164135e53919560da1b815250604051806040016040528060048152602001631353919560e21b815250815f9081610078919061025d565b506001610085828261025d565b5050506001600160a01b0381166100b657604051631e4fbdf760e01b81525f60048201526024015b60405180910390fd5b6100bf81610128565b506001600160a01b0381166101165760405162461bcd60e51b815260206004820152601560248201527f496e76616c696420746f6b656e2061646472657373000000000000000000000060448201526064016100ad565b6001600160a01b031660805250610317565b600780546001600160a01b038381166001600160a01b0319831681179093556040519116919082907f8be0079c531659141344cd1fd0a4f28419497f9722a3daafe3b4186f6b6457e0905f90a35050565b80516001600160a01b038116811461018f575f5ffd5b919050565b5f5f604083850312156101a5575f5ffd5b6101ae83610179565b91506101bc60208401610179565b90509250929050565b634e487b7160e01b5f52604160045260245ffd5b600181811c908216806101ed57607f821691505b60208210810361020b57634e487b7160e01b5f52602260045260245ffd5b50919050565b601f82111561025857805f5260205f20601f840160051c810160208510156102365750805b601f840160051c820191505b81811015610255575f8155600101610242565b50505b505050565b81516001600160401b03811115610276576102766101c5565b61028a8161028484546101d9565b84610211565b6020601f8211600181146102bc575f83156102a55750848201515b5f19600385901b1c1916600184901b178455610255565b5f84815260208120601f198516915b828110156102eb57878501518255602094850194600190920191016102cb565b508482101561030857868401515f19600387901b60f8161c191681555b50505050600190811b01905550565b60805161167261033d5f395f81816101c0015281816104f501526107ea01526116725ff3fe608060405234801561000f575f5ffd5b5060043610610127575f3560e01c806370a08231116100a9578063b88d4fde1161006e578063b88d4fde14610280578063c87b56dd14610293578063e985e9c5146102a6578063eacabe14146102b9578063f2fde38b146102cc575f5ffd5b806370a0823114610239578063715018a61461024c5780638da5cb5b1461025457806395d89b4114610265578063a22cb4651461026d575f5ffd5b80633013ce29116100ef5780633013ce29146101bb57806342842e0e146101e25780635cb988e2146101f55780636352211e14610208578063676dd5631461021b575f5ffd5b806301ffc9a71461012b57806306fdde0314610153578063081812fc14610168578063095ea7b31461019357806323b872dd146101a8575b5f5ffd5b61013e61013936600461116e565b6102df565b60405190151581526020015b60405180910390f35b61015b610309565b60405161014a91906111b7565b61017b6101763660046111c9565b610398565b6040516001600160a01b03909116815260200161014a565b6101a66101a13660046111fb565b6103bf565b005b6101a66101b6366004611223565b6103ce565b61017b7f000000000000000000000000000000000000000000000000000000000000000081565b6101a66101f0366004611223565b61045c565b6101a66102033660046111fb565b61047b565b61017b6102163660046111c9565b6105a8565b61022b6802b5e3af16b188000081565b60405190815260200161014a565b61022b61024736600461125d565b6105b2565b6101a66105f7565b6007546001600160a01b031661017b565b61015b61060a565b6101a661027b366004611283565b610619565b6101a661028e366004611343565b610624565b61015b6102a13660046111c9565b61063c565b61013e6102b43660046113ba565b610747565b6101a66102c73660046113eb565b610774565b6101a66102da36600461125d565b6108d1565b5f6001600160e01b03198216632483248360e11b148061030357506103038261090e565b92915050565b60605f805461031790611449565b80601f016020809104026020016040519081016040528092919081815260200182805461034390611449565b801561038e5780601f106103655761010080835404028352916020019161038e565b820191905f5260205f20905b81548152906001019060200180831161037157829003601f168201915b5050505050905090565b5f6103a28261095d565b505f828152600460205260409020546001600160a01b0316610303565b6103ca828233610995565b5050565b6001600160a01b0382166103fc57604051633250574960e11b81525f60048201526024015b60405180910390fd5b5f6104088383336109a2565b9050836001600160a01b0316816001600160a01b031614610456576040516364283d7b60e01b81526001600160a01b03808616600483015260248201849052821660448201526064016103f3565b50505050565b61047683838360405180602001604052805f815250610624565b505050565b610483610a94565b6001600160a01b0382166104cd5760405162461bcd60e51b8152602060048201526011602482015270125b9d985b1a59081c9958da5c1a595b9d607a1b60448201526064016103f3565b60405163a9059cbb60e01b81526001600160a01b038381166004830152602482018390525f917f00000000000000000000000000000000000000000000000000000000000000009091169063a9059cbb906044016020604051808303815f875af115801561053d573d5f5f3e3d5ffd5b505050506040513d601f19601f820116820180604052508101906105619190611481565b9050806104765760405162461bcd60e51b8152602060048201526015602482015274151bdad95b881d1c985b9cd9995c8819985a5b1959605a1b60448201526064016103f3565b5f6103038261095d565b5f6001600160a01b0382166105dc576040516322718ad960e21b81525f60048201526024016103f3565b506001600160a01b03165f9081526003602052604090205490565b6105ff610a94565b6106085f610ac1565b565b60606001805461031790611449565b6103ca338383610b12565b61062f8484846103ce565b6104563385858585610bb0565b60606106478261095d565b505f828152600660205260408120805461066090611449565b80601f016020809104026020016040519081016040528092919081815260200182805461068c90611449565b80156106d75780601f106106ae576101008083540402835291602001916106d7565b820191905f5260205f20905b8154815290600101906020018083116106ba57829003601f168201915b505050505090505f6106f360408051602081019091525f815290565b905080515f03610704575092915050565b81511561073657808260405160200161071e9291906114b3565b60405160208183030381529060405292505050919050565b61073f84610cd8565b949350505050565b6001600160a01b039182165f90815260056020908152604080832093909416825291909152205460ff1690565b6001600160a01b0382166107be5760405162461bcd60e51b8152602060048201526011602482015270125b9d985b1a59081c9958da5c1a595b9d607a1b60448201526064016103f3565b6040516323b872dd60e01b81523360048201523060248201526802b5e3af16b188000060448201525f907f00000000000000000000000000000000000000000000000000000000000000006001600160a01b0316906323b872dd906064016020604051808303815f875af1158015610838573d5f5f3e3d5ffd5b505050506040513d601f19601f8201168201806040525081019061085c9190611481565b9050806108a35760405162461bcd60e51b8152602060048201526015602482015274151bdad95b881d1c985b9cd9995c8819985a5b1959605a1b60448201526064016103f3565b600160085f8282546108b591906114c7565b90915550506008546108c78482610d49565b6104568184610d62565b6108d9610a94565b6001600160a01b03811661090257604051631e4fbdf760e01b81525f60048201526024016103f3565b61090b81610ac1565b50565b5f6001600160e01b031982166380ac58cd60e01b148061093e57506001600160e01b03198216635b5e139f60e01b145b8061030357506301ffc9a760e01b6001600160e01b0319831614610303565b5f818152600260205260408120546001600160a01b03168061030357604051637e27328960e01b8152600481018490526024016103f3565b6104768383836001610db1565b5f828152600260205260408120546001600160a01b03908116908316156109ce576109ce818486610eb5565b6001600160a01b03811615610a08576109e95f855f5f610db1565b6001600160a01b0381165f90815260036020526040902080545f190190555b6001600160a01b03851615610a36576001600160a01b0385165f908152600360205260409020805460010190555b5f8481526002602052604080822080546001600160a01b0319166001600160a01b0389811691821790925591518793918516917fddf252ad1be2c89b69c2b068fc378daa952ba7f163c4a11628f55a4df523b3ef91a4949350505050565b6007546001600160a01b031633146106085760405163118cdaa760e01b81523360048201526024016103f3565b600780546001600160a01b038381166001600160a01b0319831681179093556040519116919082907f8be0079c531659141344cd1fd0a4f28419497f9722a3daafe3b4186f6b6457e0905f90a35050565b6001600160a01b038216610b4457604051630b61174360e31b81526001600160a01b03831660048201526024016103f3565b6001600160a01b038381165f81815260056020908152604080832094871680845294825291829020805460ff191686151590811790915591519182527f17307eab39ab6107e8899845ad3d59bd9653f200f220920489ca2b5937696c31910160405180910390a3505050565b6001600160a01b0383163b15610cd157604051630a85bd0160e11b81526001600160a01b0384169063150b7a0290610bf29088908890879087906004016114e6565b6020604051808303815f875af1925050508015610c2c575060408051601f3d908101601f19168201909252610c2991810190611522565b60015b610c93573d808015610c59576040519150601f19603f3d011682016040523d82523d5f602084013e610c5e565b606091505b5080515f03610c8b57604051633250574960e11b81526001600160a01b03851660048201526024016103f3565b805160208201fd5b6001600160e01b03198116630a85bd0160e11b14610ccf57604051633250574960e11b81526001600160a01b03851660048201526024016103f3565b505b5050505050565b6060610ce38261095d565b505f610cf960408051602081019091525f815290565b90505f815111610d175760405180602001604052805f815250610d42565b80610d2184610f19565b604051602001610d329291906114b3565b6040516020818303038152906040525b9392505050565b6103ca828260405180602001604052805f815250610fa9565b5f828152600660205260409020610d798282611581565b506040518281527ff8e1a15aba9398e019f0b49df1a4fde98ee17ae345cb5f6b5e2c27f5033e8ce79060200160405180910390a15050565b8080610dc557506001600160a01b03821615155b15610e86575f610dd48461095d565b90506001600160a01b03831615801590610e005750826001600160a01b0316816001600160a01b031614155b8015610e135750610e118184610747565b155b15610e3c5760405163a9fbf51f60e01b81526001600160a01b03841660048201526024016103f3565b8115610e845783856001600160a01b0316826001600160a01b03167f8c5be1e5ebec7d5bd14f71427d1e84f3dd0314c0f7b2291e5b200ac8c7c3b92560405160405180910390a45b505b50505f90815260046020526040902080546001600160a01b0319166001600160a01b0392909216919091179055565b610ec0838383610fc0565b610476576001600160a01b038316610eee57604051637e27328960e01b8152600481018290526024016103f3565b60405163177e802f60e01b81526001600160a01b0383166004820152602481018290526044016103f3565b60605f610f2583611021565b60010190505f8167ffffffffffffffff811115610f4457610f446112b8565b6040519080825280601f01601f191660200182016040528015610f6e576020820181803683370190505b5090508181016020015b5f19016f181899199a1a9b1b9c1cb0b131b232b360811b600a86061a8153600a8504945084610f7857509392505050565b610fb383836110f8565b610476335f858585610bb0565b5f6001600160a01b0383161580159061073f5750826001600160a01b0316846001600160a01b03161480610ff95750610ff98484610747565b8061073f5750505f908152600460205260409020546001600160a01b03908116911614919050565b5f8072184f03e93ff9f4daa797ed6e38ed64bf6a1f0160401b831061105f5772184f03e93ff9f4daa797ed6e38ed64bf6a1f0160401b830492506040015b6d04ee2d6d415b85acef8100000000831061108b576d04ee2d6d415b85acef8100000000830492506020015b662386f26fc1000083106110a957662386f26fc10000830492506010015b6305f5e10083106110c1576305f5e100830492506008015b61271083106110d557612710830492506004015b606483106110e7576064830492506002015b600a83106103035760010192915050565b6001600160a01b03821661112157604051633250574960e11b81525f60048201526024016103f3565b5f61112d83835f6109a2565b90506001600160a01b03811615610476576040516339e3563760e11b81525f60048201526024016103f3565b6001600160e01b03198116811461090b575f5ffd5b5f6020828403121561117e575f5ffd5b8135610d4281611159565b5f81518084528060208401602086015e5f602082860101526020601f19601f83011685010191505092915050565b602081525f610d426020830184611189565b5f602082840312156111d9575f5ffd5b5035919050565b80356001600160a01b03811681146111f6575f5ffd5b919050565b5f5f6040838503121561120c575f5ffd5b611215836111e0565b946020939093013593505050565b5f5f5f60608486031215611235575f5ffd5b61123e846111e0565b925061124c602085016111e0565b929592945050506040919091013590565b5f6020828403121561126d575f5ffd5b610d42826111e0565b801515811461090b575f5ffd5b5f5f60408385031215611294575f5ffd5b61129d836111e0565b915060208301356112ad81611276565b809150509250929050565b634e487b7160e01b5f52604160045260245ffd5b5f5f67ffffffffffffffff8411156112e6576112e66112b8565b50604051601f19601f85018116603f0116810181811067ffffffffffffffff82111715611315576113156112b8565b60405283815290508082840185101561132c575f5ffd5b838360208301375f60208583010152509392505050565b5f5f5f5f60808587031215611356575f5ffd5b61135f856111e0565b935061136d602086016111e0565b925060408501359150606085013567ffffffffffffffff81111561138f575f5ffd5b8501601f8101871361139f575f5ffd5b6113ae878235602084016112cc565b91505092959194509250565b5f5f604083850312156113cb575f5ffd5b6113d4836111e0565b91506113e2602084016111e0565b90509250929050565b5f5f604083850312156113fc575f5ffd5b611405836111e0565b9150602083013567ffffffffffffffff811115611420575f5ffd5b8301601f81018513611430575f5ffd5b61143f858235602084016112cc565b9150509250929050565b600181811c9082168061145d57607f821691505b60208210810361147b57634e487b7160e01b5f52602260045260245ffd5b50919050565b5f60208284031215611491575f5ffd5b8151610d4281611276565b5f81518060208401855e5f93019283525090919050565b5f61073f6114c1838661149c565b8461149c565b8082018082111561030357634e487b7160e01b5f52601160045260245ffd5b6001600160a01b03858116825284166020820152604081018390526080606082018190525f9061151890830184611189565b9695505050505050565b5f60208284031215611532575f5ffd5b8151610d4281611159565b601f82111561047657805f5260205f20601f840160051c810160208510156115625750805b601f840160051c820191505b81811015610cd1575f815560010161156e565b815167ffffffffffffffff81111561159b5761159b6112b8565b6115af816115a98454611449565b8461153d565b6020601f8211600181146115e1575f83156115ca5750848201515b5f19600385901b1c1916600184901b178455610cd1565b5f84815260208120601f198516915b8281101561161057878501518255602094850194600190920191016115f0565b508482101561162d57868401515f19600387901b60f8161c191681555b50505050600190811b0190555056fea264697066735822122002d4eb828f8bd5fd010f81dd22c726bc3f86a60f210e75e24e78c581ccfd2afb64736f6c634300081c0033",
  "linkReferences": {},
  "deployedLinkReferences": {},
  "immutableReferences": {
    "6784": [
      {
        "length": 32,
        "start": 448
      },
      {
        "length": 32,
        "start": 1269
      },
      {
        "length": 32,
        "start": 2026
      }
    ]
  },
  "inputSourceName": "project/contracts/NFTMinter.sol",
  "buildInfoId": "solc-0_8_28-9745db6bfdbcbdf4fd12851a3922226ba2ff3cbd"
}